:020000040002F8
:1000000028370020E9010200FB010200FD01020087
:1000100000000000000000000000000000000000E0
:10002000000000000000000000000000FF010200CE
:1000300000000000000000000102020003020200B4
:10004000050202000502020005020200050202008C
:1000500005020200000000009D48020005020200A7
:10006000050202000502020005020200050202006C
:10007000050202000502020005020200050202005C
:1000800005020200CD3C020005020200050202004A
:10009000EF3C0200050202001543020005020200C7
:1000A000050202000502020000000000000000003E
:1000B0000000000000000000000000000000000040
:1000C00000F002F800F044F80CA030C808382418FA
:1000D0002D18A246671EAB4654465D46AC4201D180
:1000E00000F036F87E460F3E0FCCB646012633426E
:1000F00000D0FB1AA246AB46334318479C59000078
:10010000BC590000103A02D378C878C1FAD8520717
:1001100001D330C830C101D504680C6070470000BD
:100120000023002400250026103A01D378C1FBD813
:10013000520700D330C100D50B6070471FB5C046D1
:10014000C0460098019905F0AAFA1FBD10B510BD70
:1001500005F0FFFA1146FFF7F1FF01F0C9F905F0CC
:1001600017FB03B4FFF7F2FF03BC05F045FB0000EB
:10017000401E00BF00BF00BF00BF00BF00BF00BFE8
:1001800000BF00BF00BF00BF00BFF1D1704700003B
:10019000401E00BF00BF00BF00BF00BF00BF00BFC8
:1001A00000BF00BF00BF00BF00BFF1D1704700001B
:1001B00070B505460C46164602E00FCC0FC5103E42
:1001C000102EFAD2082E02D303CC03C5083E042E0B
:1001D00007D301CC01C5361F03E021782970641CC8
:1001E0006D1C761EF9D270BD0A4802680F210A43C1
:1001F00002600948804709480047FEE7FEE7FEE73E
:10020000FEE7FEE7FEE7000005480649064A074B01
:10021000704700002405004031020200C1000200C6
:100220002827002028370020282F0020282F0020F2
:100230000848008D0006000F012805D1064807492F
:100240004860C81306498861704706480649086037
:1002500070470000C00F00F0DFFF07C0000500403E
:10026000006C00400024F4000020002001460846F5
:1002700028300DD014380BD0001F09D0001F07D034
:10028000001F05D0081D03D0002901D0042901D189
:10029000012070470020FCE770B500BFFE48052133
:1002A0000907072212028918886700BF00211E2053
:1002B00001F090F97D20C00004F0C8FC01211E204F
:1002C00001F088F97D20C00004F0C0FC0026002465
:1002D0000020054612E000221146104604F0C2F943
:1002E000EE4908600846006801F000FA002802D0D4
:1002F0000120044604E0681CC0B20546052DEADB77
:1003000000BF012C02D00120E549087070BD70B516
:1003100004460D4616462ADF70BDF0B585B00120B3
:100320000290E04840680190DF4840680090182043
:10033000DD4948600020DD4908600120DA49086095
:100340000020DA4908600120D949086000BFD74879
:1003500000680028FBD00020D4490860D24880689B
:10036000C5B20120D24948604B21090169430846C2
:10037000FF2104F0E4FE41004018FF300F3086B248
:10038000304601F0D3F80390CA49C88A03AB02AAE9
:100390000021A4DF044600BF2746002F07D000BF7E
:1003A000C5A2FF217E313846FFF7B1FF00BF00BF75
:1003B000BD49009848600020BC490860BA490860FF
:1003C00005B0F0BD70477CB5064601F00DFB00900E
:1003D00002200190B7494039C88E6B4601AA00211E
:1003E000A4DF044600BF2546002D07D000BFB2A2FF
:1003F000FF21BC312846FFF78AFF00BF00BF7CBD4C
:1004000070B5064604F046FC002811D11321AD4812
:10041000008866DF044600BF2546002D07D000BFD8
:10042000A5A2FF21C8312846FFF771FF00BF00BF1A
:1004300070BD30B585B01421684604F074FE00210B
:100440006846017000200190684601729E48C18C88
:10045000684601820021418263DF044600BF2546D1
:10046000002D06D000BF94A298492846FFF74FFF01
:1004700000BF00BF05B030BDFFB581B00D461646C8
:100480001F460A9C02202070152060701022A01CBC
:10049000019904F0E9FD28880012A0742878E0741E
:1004A000308800122075307860753878A07505B0F6
:1004B000F0BD30B5B3B0062114913C2124A804F05E
:1004C00032FE3C2115A804F02EFE814800680E90F3
:1004D0008048817808A881767B48203004214156E5
:1004E0008807800F2BD188100A30030005F0AAF985
:1004F0000C23272727271F1B17130F0B07273B202A
:10050000C04304901FE03D20C04304901BE0412005
:10051000C043049017E04320C043049013E04920F7
:10052000C04304900FE04B20C04304900BE05020E8
:10053000C043049007E05A20C043049003E04B20DE
:10054000C043049000BF00BF63480068002809D181
:1005500008A804AB5C4A921C911E0090081DFFF78E
:100560008BFF0DE05C480068012809D108A804ABA6
:10057000554A921C911E009008461430FFF77CFFEC
:100580004C21684681801721018108A9039100212F
:1005900020A841750121018314A924A8C160404805
:1005A0000078002802D00020309001E001A83090AF
:1005B00012A861DF044600BF2546002D07D000BF0A
:1005C0003DA2354923312846FFF7A1FE00BF00BFF9
:1005D0004249684681870B2110A80180062212A992
:1005E000013105A804F040FD6846017C817636495A
:1005F0000A78C2764978017733498A784277C97890
:10060000817705A91191022015900FA82290012150
:1006100020A8017315A924A802F064FF044600BFB6
:100620002546002D07D000BF23A21B49363128469E
:10063000FFF76DFE00BF00BF33B030BD70B506469A
:1006400025480068002804D12548006803F048FCCC
:1006500018E02348006803F043FC002201218903CD
:100660001F48006803F00BFC044600BF2546002D20
:1006700007D000BF10A2FF21D8312846FFF747FE60
:1006800000BF00BF144801780A48403802F0FBF868
:100690000C480088134927E00303000034200020A1
:1006A00012200020007300400075004000710040DF
:1006B00000700040E42500202E2E5C6D61696E2ED6
:1006C00063000000042000203C2600209305000069
:1006D000845A02004C250020082000200A1800003F
:1006E00024200020FFFF0000884212D164DF04466E
:1006F00000BF2546002D07D000BFFE4AFF21E13193
:100700002846FFF704FE00BF00BFFFF7D2FEFFF749
:1007100090FE70BD70B58EB00546FE260D200D9082
:100720000DAA6946304602F0EDFB0446002C02D0CB
:1007300020460EB070BD302269462846FFF738FDCE
:100740000020F6E7F0B58DB00446FE250D273022D7
:1007500021466846FFF72CFD0D226946284602F027
:1007600095FB064630460DB0F0BD70B504460D460B
:100770002A462146E048FFF7CAFD70BD10B500BF0C
:1007800000BF032005210907072212028918C8614A
:1007900000BF00BF00BF00BF05210907891808621C
:1007A00000BF00BF082000F010FF072000F008FF86
:1007B000FF202D3004F04AFA072000F006FF10BD9C
:1007C000F8B500BF0020CD4B09220621009003F0B0
:1007D00092FA054600BF2E46002E06D000BFC54A3D
:1007E000C7493046FFF793FD00BF00BF00BFC54AB1
:1007F0000021C54803F0FCFA044600BF2546002D41
:1008000007D000BFBB4ABE49C91D2846FFF77FFD80
:1008100000BF00BFBD4A0121BD4803F0E9FA04460C
:1008200000BF2546002D07D000BFB24AB4491131A0
:100830002846FFF76CFD00BF00BFB64A0021B6484E
:1008400003F0D6FA044600BF2546002D07D000BFAE
:10085000A84AAB4914312846FFF759FD00BF00BF35
:10086000F8BD3EB500BF6846007801090901491C82
:10087000009168460078F02188431030009000BF56
:10088000A6480078002805D00622A5A168466CDF9E
:10089000044604E00322A4A168466CDF044600BFBE
:1008A0002546002D07D000BF924A95493131284690
:1008B000FFF72DFD00BF00BF002001900290112125
:1008C000684681802021C18000210181FF21F5310E
:1008D000418101A86ADF044600BF2546002D07D0EC
:1008E00000BF844A86493B312846FFF710FD00BF10
:1008F00000BF3EBD012000070069C301191A012095
:1009000000070069FE23584302460220874B5860C7
:100910001846816000BF864800680028FBD001208F
:1009200040040AE0814B986000BF814B1B68002B9C
:10093000FBD001231B071B6918189042F2D300203B
:100940007A4B5860704730B50246488880187F233C
:100950009B0298420DD04888801801235B0498427E
:1009600026D3488880180B78C0187F23DB02984272
:100970001ED801206D4B586000200EE084000B460D
:1009800008331B594C8885006419135100BF684B0C
:100990001B680023002BFAD1401C0B78DC17A40F36
:1009A000E418A4108442E9D80020604B586030BDA0
:1009B0000220FCE730B587B0044600255D4800788A
:1009C000002803D10325284607B030BD21796A46A7
:1009D000A06803F0DAFD684603F023FE002802D188
:1009E00001252846F0E70198002808D002280DD0FC
:1009F000042810D1029800044F4908600CE06946B1
:100A00004D480068FFF79FFF054605E0029800018A
:100A10004949086000E000BF00BF2846D4E7F8B5A8
:100A200007460D462868002806D0012809D002286C
:100A30001BD003283BD121E00021384601F0B8F952
:100A400035E0AA2039DF13213C48008866DF0446E0
:100A500000BF2646002E06D000BF264A3849304641
:100A6000FFF755FC00BF00BF21E02846FFF7A2FFBB
:100A700000903846009901F09BF918E000213846B3
:100A800001F096F9AB2039DF13212C48008866DF8E
:100A9000044600BF2646002E07D000BF154A28494D
:100AA0000C313046FFF733FC00BF00BF00BF00BF72
:100AB000F8BDFEB506460D462868030004F0C2FEE8
:100AC0000C074E67829DDAFDFCFCFCFBFAFC022061
:100AD00001901C49C8891C4B01AA0021A5DF0446CE
:100AE00000BF2746002F34D000BF024A14492031EE
:100AF00038462BE0B8060200EFBEADDEDC20002059
:100B0000760200000104020030200020C70302002A
:100B1000242000203D060200282000201220002072
:100B20004553545F453100004553540000E50140F2
:100B300000E40140112000201820002004200020A3
:100B4000A7030000A42500203C260020FFF7DFFBC0
:100B500000BF00BF0120FE49087033E10220019070
:100B6000FC49C888FC4B01AA0021A5DF044600BF50
:100B70002746002F06D000BFF84AF9493846FFF74C
:100B8000C6FB00BF00BF0120F14908701AE1102028
:100B90000190F049C88AF04B9B1C01AA0021A5DFF7
:100BA000044600BF2746002F07D000BFEB4AEC49A0
:100BB0000B313846FFF7ABFB00BF00BF0120E44913
:100BC0000870FFE010200190E249C88BE24B12331D
:100BD00001AA0021A5DF044600BF2746002F07D049
:100BE00000BFDE4A7D21C9003846FFF790FB00BFF9
:100BF00000BF0120D6490870E4E001200190D549EA
:100C0000C88C6B4601AA0021A5DF044600BF274619
:100C1000002F07D000BFD14AD14925313846FFF710
:100C200076FB00BF00BF694600200856FFF71EFB99
:100C3000002809D0684600214156C7481E3001717E
:100C40000120C349087014E0C249C88CC24B22334A
:100C500001AA0021A4DF044600BF2746002F07D0C9
:100C600000BFBE4ABE4933313846FFF750FB00BFD4
:100C700000BFA7E002200190B649C88D6B4601AACB
:100C80000021A5DF044600BF2746002F07D000BF84
:100C9000B24AB34941313846FFF739FB00BF00BFC4
:100CA0006846008850281ADA50200090A949C88D5B
:100CB0006B4603E084E064E083E03CE001AA0021AD
:100CC000A4DF044600BF2746002F07D000BFA34A79
:100CD000A3494D313846FFF71AFB00BF1BE06846B9
:100CE00000881921C901884215DD084600909949FC
:100CF000C88D6B4601AA0021A4DF044600BF274629
:100D0000002F07D000BF954A954959313846FFF763
:100D1000FEFA00BF00BF9048801EC08C694609885B
:100D2000884207D0684600888B49891EC884012004
:100D30008749087046E0022001908649C88E6B46BC
:100D400001AA0021A5DF044600BF2746002F07D0D7
:100D500000BF824A82496F313846FFF7D8FA00BF98
:100D600000BF69460020085E00F032FE7A49891E05
:100D700008852820085E00F034FE012074490870C0
:100D800020E00420019073494031C8896B4601AAD4
:100D90000021A5DF044600BF2746002F07D000BF73
:100DA0006E4A6F4982313846FFF7B1FA00BF00BF83
:100DB0006949891E0098C86201206549087001E0F0
:100DC00000E000BF00BFFEBDF0B585B007460D4690
:100DD0002868002802D001284DD12EE0042004907C
:100DE0006049C88803AB04AA0021A5DF044600BF00
:100DF0002646002E07D000BF584A8F21C900304632
:100E0000FFF785FA00BF00BF039803F085FF02904B
:100E10005449C88802AB04AA0021A4DF044600BFDD
:100E20002646002E07D000BF4C4A4D49AF31304610
:100E3000FFF76DFA00BF00BF1EE010200490494983
:100E4000C8896B4604AA0021A5DF044600BF2646D8
:100E5000002E07D000BF414A492109013046FFF763
:100E600056FA00BF00BF684603F078FF002801D1A2
:100E700003F000FF00E000BF00BF05B0F0BDF0B51B
:100E8000ADB0394B9A6819685868DB680BAC0DC473
:100E90000A91142128A804F046F9344828900AA899
:100EA0000FC829AC0FC428A9314800F043FF0446FD
:100EB00000BF2546002D06D000BF284A2D492846F0
:100EC000FFF725FA00BF00BF2348801EFFF722FC72
:100ED000002859D028A30FCB04AE0FC626A30FCBF2
:100EE0006E460FC608A861DF044600BF2746002FE4
:100EF00007D000BF194A1F490A313846FFF707FAE1
:100F000000BF00BF08A8457808A9897809020D43E9
:100F1000C67808A9097909020E430F48801E05808A
:100F2000468004A98EC9001D8EC0143869468EC93A
:100F300014308EC00F21C943001F017100200649E3
:100F4000891E0885C862FF204130C88438E000004F
:100F500010200020A42500203E260020B806020014
:100F6000D203000008260020885A02001F0A02004F
:100F70004C250020DD040000B9407F30F5F8466EB6
:100F8000AFF925556B57FE6DFE4904200856FFF753
:100F90006DF9002803D10F21C943FA480171F948BE
:100FA0002038C08C502806DBF6482038C08C192128
:100FB000C901884204DDFF204130F2492039C8844C
:100FC00034211BA804F0AFF8EF481B900AA80FC803
:100FD0001CAD0FC5EB482038018820A84180E948A6
:100FE0002038418820A80180E6481C382190103024
:100FF00022900C30017920A80173E24904200856A0
:1010000067DF044600BF2546002D06D000BFDF4A3B
:10101000DF492846FFF77BF900BF00BFD9492039D7
:101020002820085E00F0DDFCD6482038C06A2690F3
:10103000D4482038C08C20A908821BA9D54801F0CB
:101040009CFB044600BF2546002D07D000BFCF4AB9
:10105000CF490C312846FFF75AF900BF00BF1C21C9
:1010600014A804F060F8CC4814900AA80FC815AE74
:101070000FC614A9C94801F067FD044600BF254604
:10108000002D07D000BFC14AC14914312846FFF7DF
:101090003EF900BF00BF18210EA804F044F80AA8CA
:1010A0000FC80EAE0FC6BEA01290BFA013900EA91F
:1010B000BF4801F02BFE044600BF2546002D07D097
:1010C00000BFB24AB2491E312846FFF720F900BFDF
:1010D00000BF2DB0F0BD1E20B649088008468078BC
:1010E00040084000401C88700846807802218843F0
:1010F000B0498870084680781C2188430C30AD497F
:1011000088700846807820218843AA498870072083
:10111000C87010200871704730B587B01C21684630
:1011200004F001F8002000900520C0030190029017
:101130000321684601730021C1810121017400204F
:1011400005900690684602F0B2FF044600BF2546AF
:10115000002D07D000BF8D4A8D494E312846FFF73C
:10116000D6F800BF00BF07B030BD00207047F8B50B
:1011700004460025208814286CD006DC10280BD0EB
:10118000112826D0132872D150E017285CD01928D6
:1011900076D052287AD150E003F06CFD0022052170
:1011A00009048548006802F06AFE054600BF2F4624
:1011B000002F07D000BF754A754996313846FFF7B2
:1011C000A6F800BF00BFA0887C490880FFF7A5F8FB
:1011D0005DE00020C043794908800020784908700C
:1011E0007548006802F07CFE76480078012803D13B
:1011F00064482038FFF7A6FA7348C069AA2803D0CC
:101200007148C069AB2801D12ADF0EE06D48007833
:10121000012808D15B490420085667DFFFF749F928
:10122000002068490870FFF704F930E0614A0021A6
:10123000624800886FDF054629E0002211465F48BA
:101240000088A9DF054622E03222A11D5F4803F095
:101250000BFF1CE05D4EB61D3188E089814208D14C
:10126000002231465548008871DF054607E00DE051
:1012700006E0002211465148008871DF054606E06D
:10128000A079002801D1FFF7D4F800E000BF00BF2B
:1012900000BF2F46002F07D000BF3C4A3C49FF311A
:1012A0003846FFF734F800BF00BFF8BD10B504465C
:1012B0002046FFF75CFF204602F0ADFF214637488D
:1012C00001F028FC21463A4801F010FD03F0E2FC51
:1012D000002808D021463E4800F012FD21462D4846
:1012E00001F031FA0DE02088102802D02088112862
:1012F00007D12146364800F003FD2146254801F07C
:1013000022FA10BD38B500BF0020324B50223249BE
:1013100000900D2002F0B7FF044600BF2546002DC7
:1013200006D000BF194A2D492846FEF7F0FF00BF3E
:1013300000BF00BF38BD70B500BF2949012003F0D0
:1013400012FB044600BF2546002D07D000BF0F4A00
:1013500022490A312846FEF7DAFF00BF00BF00BF6E
:1013600070BD30B593B01FA30FCB01AC0FC411A853
:1013700061DF044600BF2546002D40D000BF034A70
:10138000CD2137E05C260020B30A0200B806020037
:1013900017050000A4250020C90D02000826002022
:1013A00041312E360000000044322E310000000092
:1013B000242600201C2000203020002004200020B3
:1013C000112000201020002000050040B42400203F
:1013D0004C250020AD120200E82400204D0600003C
:1013E00038250020FF8AF207013625C2D810097F70
:1013F00020D3050FC9002846FEF789FF00BF00BFB4
:1014000010A8417908A8017111A8817805A8417434
:1014100011A8C17805A8817411A8017905A8C17423
:1014200011A8417905A8017511A8817905A8417510
:1014300011A8C17805A8817511A8817805A8C17582
:1014400010A8417905A8017611A8817905A84176EF
:1014500011A8417905A8817611A8017905A8C1765E
:1014600011A8417905A8017711A8C17805A841778D
:1014700011A8017905A8817711A8817805A8C177FD
:1014800001A80FC8089305AB07C305A84ADF0DA83C
:1014900003F059FC13B030BD70B53DDF044600BF0A
:1014A0002546002D06D000BF514A52492846FEF776
:1014B0002EFF00BF00BF70BD70B505460C464E48FC
:1014C000006802F00DFD0220054203D001204B49C7
:1014D000086005E00220044202D00020474908606D
:1014E0000022444921394448006802F0C8FC70BD1C
:1014F000FFF744F9FFF71FFFFFF762F9FEF7CCFE95
:10150000FFF700FFFFF7ADF9FFF7B9FCFFF704FEA7
:10151000FEF7CFFFFFF7DFFDFFF723FFFFF725FE05
:10152000FEF787FF00BFFFF7B7FFFCE770B5044683
:101530003348844201DB642540E03148643884420A
:101540000BDD2F49091B3A2251430846642103F061
:10155000F6FD6421081AC5B230E02A4884420CDD49
:1015600027496439091B182251430846A02103F07A
:10157000E6FD2A21081AC5B220E0234884420CDD8A
:101580002049091B0C2251430846FF212D3103F04D
:10159000D6FD1221081AC5B210E01C4884420CDDA9
:1015A0001949091B062251430846FF21553103F012
:1015B000C6FD0621081AC5B200E00025284670BD08
:1015C00001218140124A9160704701218140104AF7
:1015D000D160704770B505460C46002C03D12846F3
:1015E000FFF7F3FF02E02846FFF7EAFF70BD0000B7
:1015F000B8060200870600002820002008200020EE
:10160000B80B0000B40A000088090000340800008C
:1016100000050050FEB506460F4615460095009899
:1016200003F0E2FB04460B2020706670022003E00A
:1016300000212154411CC8B2A842F9DB3B46224696
:101640002946F848006803F089F80190204603F025
:10165000FCFB0198FEBDF0B585B006460F4614466A
:10166000A01C0290029803F0BFFB0090A01C019008
:10167000019803F0B9FB05460A2028706E7002201D
:1016800004E0811E795C2954411CC8B2A11C884227
:10169000F7DB2A46E348009B006803F05FF80390FD
:1016A000284603F0D2FB009803F0CFFB039805B067
:1016B000F0BD7CB5044600250B21684601714471DC
:1016C00000218171002004E005216A461154411C6B
:1016D000C8B20328F8DB6B4601AA0321D148006891
:1016E00003F03CF80546684680787CBD10B504469A
:1016F000CC4804600021012000F0C6F90122CA494B
:101700001F20FFF7A8FFC9490870C82003F09EFA00
:101710000020FFF7CEFFAD2801D0002010BD0B2028
:10172000FFF7C7FFC24908702C20C249087001208A
:10173000487000208870FA20C870002008711220BC
:101740004871002088713F20C871002008728020F5
:10175000487200208872C872132008730E204873E4
:101760000E222020FFF777FF1022B3492020FFF739
:1017700051FFAE49087000210AE0AE48425CAE4B12
:10178000881C185C824201D00020C7E7481CC1B207
:101790000E29F2DB012000F081F9002801D00020A1
:1017A000BCE70220A3490872002048720420887216
:1017B0000E222020FFF74FFF10229F492020FFF725
:1017C00029FF9A490870C82003F040FA00210AE076
:1017D0009848425C984B881C185C824201D00020DB
:1017E0009CE7481CC1B20E29F2DB012000F056F93B
:1017F000002800D192E700208E49087280204872AC
:10180000402088720E222020FFF725FF10228A49EF
:101810002020FFF7FFFE8549087000210AE0854877
:10182000425C854B881C185C824201D0002075E721
:10183000481CC1B20E29F2DB01206FE71FB5044638
:101840000B216846017208214172002004E000214A
:101850006A461154411CC8B20528F8DB022004E096
:10186000002102AA1154411CC8B20528F8DB6B46BE
:1018700002AA05216B48006802F070FF002006E014
:101880006A46811C515C49B22154411CC8B20328EC
:10189000F6DB1FBD7CB5044600250B2168460171AF
:1018A000447100218171C171002004E000216A4669
:1018B0001154411CC8B20428F8DB6B4601AA04216C
:1018C0005848006802F04AFF68468178C0780002F4
:1018D000081805B228467CBD7CB5044600250B21BE
:1018E00068460171447100218171C171002004E0DA
:1018F00000216A461154411CC8B20428F8DB6B462B
:1019000001AA04214748006802F028FF6946887848
:10191000C9780902084305B228467CBDF1B582B0FA
:101920001420FFF7B7FF044603F090FE4349086018
:10193000029803F08BFE019003F012FE0446404A29
:10194000404B03F0E1FC064603F0A0FC3E49086072
:10195000084601683948006804F02CF8044603F092
:101960002BFE00B2394908800020085EFEBDF1B5AB
:101970001420FFF78FFF044603F068FE3449086027
:10198000009803F063FE044631480168204604F0E5
:1019900005F82F4908600846006803F0E1FD044699
:1019A0002C4A2D4B03F0B0FC064603F06FFC28498F
:1019B0000860012189072648006803F097FF044664
:1019C00003F0FAFD00B2254908800020085EF8BD4A
:1019D00070B504461420FFF77FFF0546281B00B2B0
:1019E00070BD1F490880704710B51420FFF774FFC1
:1019F00004461B480088201A00B210BD10B50446EA
:101A0000022018490860184908600021012000F0F0
:101A10003BF823461448026812480168134802F054
:101A2000DBFF10BD64200020412000204220002068
:101A3000402000207C2600206C260020442000202E
:101A4000DB6D179AEBC42E40482000204C2000206C
:101A500050200020A4703D0AD7A3B03F542000209E
:101A6000602000205C20002058200020562000200C
:101A700010B50E48007802F0F4FF10BD10B50B4809
:101A8000007803F05DF810BD10B58A0005231B0730
:101A9000072424021B1984001A5110BD0146044872
:101AA0000069C840C007C00F7047000056200020E2
:101AB0000005005030B58FB004460D46A178684649
:101AC0008171C64981800020079000BF6846407F31
:101AD00001090901491C68464177407FF02188438C
:101AE00010306946487700BF6846807F06218843EA
:101AF000811C684681771C2108A803F014FB08A804
:101B0000007808218843411808A80170142102A810
:101B100003F009FB01A8029007A80390042168467E
:101B200001828182A088A31D02AA08A9A2DF0FB0AA
:101B300030BD30B58FB004460D46A178684681703F
:101B4000A649491C01800020079000BF6846407FDD
:101B500001090901491C68464177407FF02188430B
:101B600010306946487700BF887F06218843801C73
:101B7000694688770020069000BF6846407E0109CC
:101B80000901491C68464176407EF02188431030A7
:101B90006946487600BF00BF6846007E010909011A
:101BA000491C68460176007EF02188431030694662
:101BB000087600BF6846807E06218843811C6846FF
:101BC00081761C2108A803F0AEFA08A8007810213D
:101BD0008843411808A8017006A80D90142101A897
:101BE00003F0A1FA6846019007A802900421684614
:101BF00081810182A08823460E3301AA08A9A2DFB1
:101C00000FB030BD30B58FB004460D46A1786846A0
:101C100081717249891C81800020079000BF68464D
:101C2000407F01090901491C68464177407FF02146
:101C3000884310306946487700BF6846807F062198
:101C40008843811C68468177807F41084900491C90
:101C5000684681771C2108A803F065FA08A8007877
:101C600004218843011D08A80170142102A803F073
:101C70005AFA01A8029007A8039000216846018241
:101C800016218182A088631802AA08A9A2DF0FB0DA
:101C900030BDFEB504460E46B51D2888E188884251
:101CA00006D1A87E009069462046226A904726E029
:101CB0002888E18A884222D10220009000200EE08C
:101CC00029461A31095C2422125D24231B5D5B1C0A
:101CD00024273B55234625339954411CC8B2298BF0
:101CE0008142EDDC2046253002902420005D6946CB
:101CF00008712046226A9047002124200155FEBD2C
:101D000070B505460C462088102804D0112805D04F
:101D100050280CD106E0A088288009E00020C043AC
:101D2000288005E021462846FFF7B3FF00E000BF0A
:101D300000BF70BDF8B505460E463068002801D1D9
:101D40000720F8BD30682862A91C301D52DF044608
:101D5000002C01D02046F4E7A97868468170012163
:101D6000090301802A1D69460120A0DF0446002CDA
:101D700001D02046E5E731462846FFF79BFE0446A2
:101D8000002C01D02046DCE731462846FFF7D1FE83
:101D90000446002C01D02046D3E731462846FFF701
:101DA00031FF0446002C01D02046CAE70020C8E7D6
:101DB00013B586B0044604210191E189684601818A
:101DC000012181720021818107A8059001A804905A
:101DD000208802A9A6DF08B010BD00000110000095
:101DE00070B58EB004460E46A17868468170FE49F3
:101DF00001800020069000BF6846407E010909016D
:101E0000491C68464176407EF0218843103069467F
:101E1000487600BF00BF6846007E01090901491CE1
:101E200068460176007EF0218843103069460876C6
:101E300000BF6846807E06218843811C6846817603
:101E40001C2107A803F06FF96846007F082188432A
:101E5000411868460177007F02218843811C68464B
:101E60000177142101A803F05EF96846019006A8E5
:101E7000029002216846818101823046143005902B
:101E8000A088A31D01AA07A9A2DF0546002D02D044
:101E900028460EB070BD0020FBE770B58EB004463A
:101EA0000E46A17868468170CF49491E0180002006
:101EB000069000BF6846407E01090901491C68463A
:101EC0004176407EF021884310306946487600BF55
:101ED00000BF6846007E01090901491C6846017679
:101EE000007EF021884310306946087600BF6846BE
:101EF000807E06218843811C684681761C2107A8C4
:101F000003F011F96846007F0821884341186846AC
:101F10000177007F02218843811C684601771421E4
:101F200001A803F000F96846019006A8029002217A
:101F3000684681810182304616300590A08823468C
:101F40000E3301AA07A9A2DF0546002D02D02846BC
:101F50000EB070BD0020FBE770B58EB004460E4693
:101F6000A17868468170A049491C01800020069034
:101F700000BF6846407E01090901491C6846417658
:101F8000407EF021884310306946487600BF00BF8C
:101F90006846007E01090901491C68460176007EF9
:101FA000F021884310306946087600BF6846807E7D
:101FB00006218843811C684681761C2107A803F00E
:101FC000B2F86846007F08218843411868460177C7
:101FD000007F02218843811C68460177142101A8F3
:101FE00003F0A1F86846019006A802901021684607
:101FF00081810182B0690590A0882346163301AA29
:1020000007A9A2DF0546002D02D028460EB070BDFC
:102010000020FBE770B58EB004460E46A1786846F6
:1020200081707149891C01800020069000BF6846BC
:10203000407E01090901491C68464176407EF02135
:10204000884310306946487600BF00BF6846007E6E
:1020500001090901491C68460176007EF021884388
:1020600010306946087600BF6846807E06218843A6
:10207000811C684681761C2107A803F054F8684645
:10208000007F08218843411868460177007F0221BC
:102090008843811C68460177142101A803F043F8A6
:1020A0006846019006A8029010216846818101824D
:1020B000F0690590A08823461E3301AA07A9A2DF74
:1020C0000546002D02D028460EB070BD0020FBE76B
:1020D00070B58EB004460E46A178684681704249BC
:1020E0000F3101800020069000BF6846407E010944
:1020F0000901491C68464176407EF0218843103032
:102100006946487600BF00BF6846007E01090901A4
:10211000491C68460176007EF021884310306946EC
:10212000087600BF6846807E06218843811C684689
:1021300081761C2107A802F0F6FF6846007F08217F
:102140008843411868460177007F02218843811C3B
:1021500068460177142101A802F0E5FF6846019066
:1021600006A8029001216846818101823046203014
:102170000590A0882346263301AA07A9A2DF0546B9
:10218000002D02D028460EB070BD0020FBE770B5D0
:102190008EB004460E46A17868468170124910310F
:1021A00001800020069000BF6846407E01090901B9
:1021B000491C68464176407EF021884310306946CC
:1021C000487600BF00BF6846007E01090901491C2E
:1021D00068460176007EF021884310306946087613
:1021E00000BF6846807E01E002300000062188437F
:1021F000811C684681761C2107A802F094FF68467E
:10220000007F08218843411868460177007F02213A
:102210008843811C68460177142101A802F083FFDE
:102220006846019006A802900221684681810182D9
:10223000304624300590A08823462E3301AA07A9F2
:10224000A2DF0546002D02D028460EB070BD00204A
:10225000FBE770B58EB004460E46A17868468170E3
:10226000FE4901800020069000BF6846407E0109BB
:102270000901491C68464176407EF02188431030B0
:102280006946487600BF00BF6846007E0109090123
:10229000491C68460176007EF0218843103069466B
:1022A000087600BF6846807E06218843811C684608
:1022B00081761C2107A802F036FF6846007F0221C4
:1022C0008843811C68460177007F082188434118B4
:1022D00068460177142101A802F025FF68460190A5
:1022E00006A8029002216846818101823046223090
:1022F0000590A0882346363301AA07A9A2DF054628
:10230000002D02D028460EB070BD0020FBE770B54E
:1023100090B004460E46A17868468172CF491031CC
:1023200001810020089000BF08A800780109090178
:10233000491C08A801700078F0218843103008A9D2
:10234000087000BF00BF08A8407801090901491CB6
:1023500008A841704078F0218843103008A94870DF
:1023600000BF08A8807806218843811C08A88170D6
:102370001C2109A802F0D7FE08A800790221884391
:10238000811C08A80171007920218843203008A908
:10239000087100200A900C900D9008A80E90002063
:1023A0000F90019000BF6846007901090901491C9E
:1023B000684601710079F021884310306946087140
:1023C00000BF6846807906218843811C6846817178
:1023D00080790821884301466846817180791021FF
:1023E0008843014668468171807941084900684602
:1023F0008171142103A802F096FE02A8039001A89F
:10240000049001216846818201833046263007907E
:10241000A08823463E3303AA09A9A2DF0546002D62
:1024200002D0284610B070BD0020FBE770B58EB01A
:1024300004460E46A17868468170884911310180B2
:102440000020069000BF6846407E01090901491C32
:1024500068464176407EF0218843103069464876D0
:1024600000BF00BF6846007E01090901491C68469B
:102470000176007EF021884310306946087600BF5F
:102480006846807E06218843811C684681761C212F
:1024900007A802F048FE6846007F082188434118DB
:1024A00068460177007F02218843811C68460177D6
:1024B000142101A802F037FE6846019006A8029098
:1024C0000421684681810182304628300590A08829
:1024D0002346463301AA07A9A2DF0546002D02D0F4
:1024E00028460EB070BD0020FBE770B58EB00446E4
:1024F0000E46A1786846817058493031018000202D
:10250000069000BF6846407E01090901491C6846E3
:102510004176407EF021884310306946487600BFFE
:1025200000BF6846007E01090901491C6846017622
:10253000007EF021884310306946087600BF684667
:10254000807E06218843811C684681761C2107A86D
:1025500002F0E9FD6846007F08218843411868467B
:102560000177007F02218843811C6846017714218E
:1025700001A802F0D8FD6846019006A80290042147
:1025800068468181018230462C300590A088234620
:102590004E3301AA07A9A2DF0546002D02D0284626
:1025A0000EB070BD0020FBE770B58EB004460E463D
:1025B000A178684681702949203101800020069069
:1025C00000BF6846407E01090901491C6846417602
:1025D000407EF021884310306946487600BF00BF36
:1025E0006846007E01090901491C68460176007EA3
:1025F000F021884310306946087600BF6846807E27
:1026000006218843811C684681761C2107A802F0B8
:102610008AFD6846007F0821884341186846017793
:10262000007F02218843811C68460177142101A89C
:1026300002F079FD6846019006A8029001216846E3
:1026400081810182304630300590A0882346563380
:1026500001AA07A9A2DF0546002D01E021300000F4
:1026600002D028460EB070BD0020FBE7F8B5044646
:102670000E46B51D2888E189884202D100200090CD
:1026800059E02888E188884202D10120009052E078
:102690002888E18A884202D1022000904BE02888F5
:1026A000E18B884202D10320009044E02888E18C2D
:1026B000884202D1042000903DE02888E18D8842C4
:1026C00002D10520009036E02888E18E884202D1B0
:1026D000062000902FE02888E18E884202D1092050
:1026E000009028E029884E20005B814202D10A2018
:1026F000009020E029885620005B814202D10B2007
:10270000009018E029884220005B814213D1288B79
:10271000022810D100BF00BFA97EEA7E1202114339
:102720000846022101404908002902D007200090F4
:1027300001E008200090206E002803D06946204662
:10274000226E9047F8BD70B505460C4620881028CB
:1027500004D0112805D050280CD106E0A08828808C
:1027600009E00020C043288005E021462846FFF705
:102770007DFF00E000BF00BF70BDF8B505460E4606
:102780003068002801D10720F8BD30682866A91CF0
:10279000301D52DF0446002C01D02046F4E7A97812
:1027A000684681700321090301802A1D69460120C2
:1027B000A0DF0446002C01D02046E5E7314628463C
:1027C000FFF76BFB0446002C01D02046DCE73146C6
:1027D0002846FFF705FB0446002C01D02046D3E72E
:1027E00031462846FFF7B8FB0446002C01D02046AE
:1027F000CAE731462846FFF70DFC0446002C01D0FD
:102800002046C1E731462846FFF762FC0446002C0B
:1028100001D02046B8E731462846FFF7B8FC044609
:10282000002C01D02046AFE731462846FFF711FDC6
:102830000446002C01D02046A6E731462846FFF783
:1028400066FD0446002C01D020469DE7314628460F
:10285000FFF7ECFD0446002C01D0204694E73146FA
:102860002846FFF742FE0446002C01D020468BE7A5
:1028700031462846FFF798FE0446002C01D020463A
:1028800082E7002080E773B588B0054608A8007984
:1028900001280CD132480078002808D1314801F0D5
:1028A0004AFB0446002C3AD020460AB070BD08A866
:1028B0000079002833D12A48007801282FD106A8B2
:1028C00001F039FB0446002C01D02046EDE705AAB3
:1028D00024480168069801F035FB0446002C01D01D
:1028E0002046E2E70598C60B042007904621485B86
:1028F00004AB07AA0021A5DF0446002C01D0204626
:10290000D3E70498801904904621485B04AB07AADA
:102910000021A4DF0446002C01D02046C5E708A80A
:1029200000790F49087028880F49884216D0002086
:10293000009001900290039001210791E98F684671
:102940000180022181700021818007A8029009A8DE
:10295000039028886946A6DF044600BF2046A4E706
:10296000682000206C200020FFFF000070B58EB0B2
:1029700004460E46A178684681708E490180002089
:10298000069000BF6846407E01090901491C68465F
:102990004176407EF021884310306946487600BF7A
:1029A00000BF6846007E01090901491C684601769E
:1029B000007EF021884310306946087600BF6846E3
:1029C000807E06218843811C684681761C2107A8E9
:1029D00002F0A9FB6846007F082188434118684639
:1029E0000177007F02218843811C6846017714210A
:1029F00001A802F098FB6846019006A80290042105
:102A0000684681810182304614300590A088A31D5C
:102A100001AA07A9A2DF0546002D02D028460EB064
:102A200070BD0020FBE770B58EB004460E46A1785D
:102A3000684681705F49491C01800020069000BFF4
:102A40006846407E01090901491C68464176407E7E
:102A5000F021884310306946487600BF00BF6846C1
:102A6000007E01090901491C68460176007EF021BB
:102A7000884310306946087600BF6846807E06218C
:102A80008843811C684681761C2107A802F04BFB15
:102A90006846007F08218843411868460177007F17
:102AA00002218843811C68460177142101A802F0A5
:102AB0003AFB6846019006A8029010216846818181
:102AC0000182B0690590A08823460E3301AA07A9A8
:102AD000A2DF0546002D02D028460EB070BD0020B2
:102AE000FBE7F8B504460D46AE1D3088E188884204
:102AF00002D10020009005E03088E189884201D1B0
:102B000001200090A069002803D069462046A269F0
:102B10009047F8BD70B505460C462088102804D0B3
:102B2000112805D050280CD106E0A088288009E0A3
:102B30000020C043288005E021462846FFF7D1FF4A
:102B400000E000BF00BF70BDF8B505460E46306816
:102B5000002801D10720F8BD3068A861A91C301DEC
:102B600052DF0446002C01D02046F4E7A9786846DD
:102B700081700121490301802A1D69460120A0DFDF
:102B80000446002C01D02046E5E731462846FFF7F1
:102B9000EDFE0446002C01D02046DCE731462846F5
:102BA000FFF741FF0446002C01D02046D3E7002068
:102BB000D1E700000120000070B58EB004460D463C
:102BC000A17868468170684901800020069000BFA6
:102BD0006846007E01090901491C68460176007EAD
:102BE000F021884310306946087600BF6846807E31
:102BF00006218843811C684681761C2107A802F0C3
:102C000092FA6846007F02218843811C684601775A
:102C1000142101A802F087FA6846019006A80290E4
:102C2000286902F0FFF9401C81B2684681810A21BF
:102C3000018228690590A088A31D01AA07A9A2DF27
:102C40000646002E02D030460EB070BD0020FBE7D5
:102C500070B58EB004460D46A17868468170424931
:102C6000491C01800020069000BF6846007E0109D3
:102C70000901491C68460176007EF0218843103026
:102C80006946087600BF6846807E06218843811C1D
:102C9000684681761C2107A802F045FA6846007F45
:102CA00002218843811C68460177142101A802F0A3
:102CB0003AFA6846019006A80290686902F0B2F9F3
:102CC000401C81B2684681810A21018268690590B1
:102CD000A08823460E3301AA07A9A2DF0646002ECC
:102CE00002D030460EB070BD0020FBE70A88102AE3
:102CF00002D0112A07D102E08A88028004E0002273
:102D0000D243028000E000BF00BF7047F8B505461F
:102D10000E46A91C304652DF0446002C01D0204646
:102D2000F8BDA978684681700121890301802A1DB8
:102D300069460120A0DF0446002C01D02046EFE7C1
:102D400031462846FFF738FF0446002C01D02046C4
:102D5000E6E731462846FFF77BFF0446002C01D00A
:102D60002046DDE70020DBE70140000070B50346A8
:102D70000C46002A01D1854D00E015882846002127
:102D800011E0051206023543A8B25D5C68400506F5
:102D90002D0F684005034540A8B205062D0D6D00B6
:102DA00068404D1CA9B2A142EBDB70BD0221784AFC
:102DB000516000BF774909680029FBD074498860D9
:102DC00000BF744909680029FBD071494968022293
:102DD00091436F4A516000BF6E4909680029FBD0DA
:102DE000704701226A4B5A6000BF6A4A1268002A83
:102DF000FBD001600022664B5A6000BF654A126832
:102E0000002AFBD0704770B504460D4600E03DDF58
:102E1000614800780028FAD101205D49486000BF70
:102E20005C4800680028FBD02560002058494860B5
:102E300000BF584800680028FBD070BD70B504463C
:102E40000D4629462046FFF7DEFF002070BDF8B58D
:102E500005460E461746002407E0A00031582846D4
:102E6000FFF7D1FF2D1D601CC4B2BC42F5DB002072
:102E7000F8BD70B5044601200007006980B26043C8
:102E800005462846FFF792FF002070BDF7B584B0D5
:102E9000154601200007006980B20499484307469F
:102EA0003C46A90000220598FFF760FF03902068C8
:102EB0000190019880B2029003990298884202D151
:102EC000002007B0F0BD3846FFF770FF241D241D19
:102ED000002607E0B200059881582046FFF781FFE1
:102EE000241D761CAE42F5DB2946381DFFF78BFF0B
:102EF0002A4903980843019038460199FFF783FF58
:102F00000020DEE7F7B586B007461446012000072B
:102F1000006980B278430490049D28680390039868
:102F2000000C000401901D490198884204D0002043
:102F30002070052009B0F0BD2D1D287820702D1DB2
:102F40002078800005902946059A0798FDF730F90A
:102F50002078810000220798FFF708FF06460F48F7
:102F60003043029003990298884201D00520E1E79E
:102F70000020DFE7024601200007006980B25043CD
:102F8000086000207047044908707047FFFF000088
:102F900000E5014000E40140702000200000DE4513
:102FA000FEB505460E4614462078801C1F21081ADF
:102FB00080B200902178891C881969466DDF0190E4
:102FC0000198002801D00198FEBD2879002808D07A
:102FD000287969460988884203DA28790090082709
:102FE00000E0092768460088401CC1B22278501CC6
:102FF0002070B1542178481C20707754217868469D
:103000000088081820700020DEE7F8B505460C4659
:103010002078001D1F2801DD0C20F8BD684669DFFF
:103020000646002E01D03046F7E703212278501CD7
:103030002070A95419212278501C2070A95420789E
:1030400041196846008800F08AFA217840182070FB
:103050000020E2E7F8B505460F4616461C466868AC
:10306000002801D10720F8BD2078801C298840184D
:103070001F2801DD0C20F6E72878401CC1B2227819
:10308000501C2070B1542178481C207077542A8835
:1030900023789819696801F0E7FF207829784018AB
:1030A00020700020DFE730B503461078C01C1F28D1
:1030B00001DD0C2030BD02241578681C10704C55C1
:1030C0000A241578681C10704C551578681C10700F
:1030D0004B550020EEE7FFB587B006461D46109C15
:1030E0000020069020780590002747E0B90070681E
:1030F00041180A886846028149884181002203A953
:1031000002A854DF04900498002802D004980BB061
:10311000F0BD6846017B099881422ED106980028AF
:1031200001D0002000E00220019020786946097B50
:103130004118019808181F2801DD0C20E7E70698C0
:10314000002809D12078401C20702278511C089852
:103150002170A854012006902078421903A902A8E2
:1031600054DF04900498002801D00498CFE7207819
:103170006946097B4018207000BF7F1C3088B84228
:10318000B4DC0698002806D021780598401C081A5F
:10319000C1B2059829540020B9E7FFB581B00746B0
:1031A00015460A9E009602223846049B0299FFF7B4
:1031B00092FF0446002C02D0204605B0F0BD0096D8
:1031C000102229463846049BFFF785FF0446002C51
:1031D00001D02046F1E70020EFE7014608880628E5
:1031E00008DB08881922D201904205DD0888E04AF0
:1031F000904201D0072070474888062808DB48889D
:103200001922D201904205DD4888D94A904201D066
:103210000720F0E70888D64A904208D048889042B4
:1032200005D008884A88904201DD0720E3E70020A6
:10323000E1E7F8B506460D4614462078801D1F28A4
:1032400001D90C20F8BD3046FFF7C7FF0746002F15
:1032500001D03846F6E705212278501C2070A95489
:1032600012212278501C2070A954227851193088DC
:1032700000F075F921784018207022785119708873
:1032800000F06DF92178401820700020DAE7F8B5D9
:1032900005460E4614462879801CC7B22078801C4B
:1032A000C0191F2801DD0C20F8BD781CC1B222789E
:1032B000501C2070B154FF212278501C2070B15452
:1032C00022789119288800F04AF921784018207056
:1032D000A88800280EDDA868002801D10720E3E7B0
:1032E000AA8823789819A96801F0BEFE2078297968
:1032F000401820700020D7E7FEB507460E4614465A
:10330000786B002801D10720FEBD0020019032E03B
:10331000796B0C22019850430D182879801CC0B29B
:1033200000900098401CC1B22278501C2070B1540B
:1033300016212278501C2070B154227891192888C7
:1033400000F00DF9217840182070A88800280EDDC3
:10335000A868002801D10720D6E7AA882378981901
:10336000A96801F081FE2078297940182070019821
:10337000401CC0B201903820C15D01988142C7DC79
:103380000020C1E7F8B504460F4616460025002088
:1033900030702068002809D0324639462046FFF7B1
:1033A000FFFD0546002D01D02846F8BD60790028B4
:1033B00008D031463846FFF728FE0546002D01D0DB
:1033C0002846F2E7208900280BDD33463A460121E2
:1033D00020460830FFF73EFE0546002D01D0284666
:1033E000E3E7206900280BD0002021690856324607
:1033F0003946FFF758FE0546002D01D02846D4E790
:10340000A08A00280CDD3B4606220221204614300B
:103410000096FFF7C2FE0546002D01D02846C4E7FE
:10342000A08B00280CDD3B460722032120461C30E0
:103430000096FFF7B2FE0546002D01D02846B4E7FE
:10344000A08C00280CDD3B46152214212046243098
:103450000096FFF7A2FE0546002D01D02846A4E7FE
:10346000E06A002809D032463946E06AFFF7E1FEFB
:103470000546002D01D0284697E7206B002809D08B
:1034800032463946206BFFF702FF0546002D01D07A
:1034900028468AE73820005D002809DD3246394693
:1034A0002046FFF729FF0546002D01D028467CE77E
:1034B00028467AE701460889002807D0C86800280E
:1034C00004D0C86800780422104201D10720704758
:1034D0000020FCE701460889002801DD072070472D
:1034E0000020FCE7F3B593B00D4600211291119135
:1034F0001398002814D01398FFF7DCFF0446002C23
:1035000002D0204615B0F0BD12AA09A91398FFF702
:1035100039FF0446002C01D02046F3E709AE00E055
:103520000026002D13D02846FFF7D4FF0446002CB8
:1035300001D02046E6E711AA01A92846FFF722FF9D
:103540000446002C01D02046DCE701AF00E0002754
:1035500010A803793A46017A304662DFD2E7024684
:103560000A70FF20000210400012487002207047CD
:10357000FFFF000010B5002819DAF74A03071B0FF8
:10358000083B9B089B00D2588307DC0EFF23A34017
:103590009A438B071B0E8407E40EA3401A43EE4B9D
:1035A0000407240F083CA408A4001A5118E0EB4AB1
:1035B00003231B02D21883089B00D2588307DC0E1A
:1035C000FF23A3409A438B071B0E8407E40EA340FE
:1035D0001A43E24B032424021B198408A4001A5145
:1035E00010BD10B50446DE48846003211120FFF7AA
:1035F000C1FF10BD10B501200004DA494860D94967
:1036000040394860112000F0B6FC112000F0A5FC04
:103610000120D54908602F20FCF7AAFD10BD10B588
:10362000112001218140CD4A8032116000BF01206C
:103630000004CC498860CB49403988600120CA49E0
:1036400048602F20FCF794FD10BDF0B502462820FD
:103650005043C64B1B68C118C5480068401C02D1C6
:10366000C348026057E0C2488B6800682824604362
:10367000BE4C246800198068834217D8BC48006893
:1036800028235843B94B1B68C01880688B68C31A3D
:10369000B748006828246043B44C2468001983604C
:1036A000B34800684862B248026034E08B68B04DAD
:1036B0002C6828680DE028254543AC4E3668AD19C6
:1036C000AD685B1B044628254543A84E3668AD19F6
:1036D000686A451C07D028254543A44E3668AD19B5
:1036E000AD689D42E7D3451C0CD0282545439F4E2D
:1036F0003668AD19AD68EE1A282545439B4F3F68E3
:10370000ED19AE608B60486228256543974E366898
:10371000AD196A6200BFF0BD70B50246944C2168D5
:10372000084609E0904200D108E0014628244443BD
:103730008E4D2D686419606A441CF3D100BF441C8F
:1037400000D170BD814209D1894C246828256C4381
:10375000864D2D686419646A854D2C602824444385
:10376000824D2D686419A368282444437F4D2D6839
:103770006419656A28244C437C4E3668A419656236
:1037800028244C43794D2D686419606A441C0CD080
:1037900028244443754D2D686419A468E51828242D
:1037A0004443724E3668A419A56000BFC9E710B53E
:1037B000112000F0D9FB10BD10B5142000F0D4FB8F
:1037C00010BD70B504466B480068002813D0694AE4
:1037D000216AE06912689047054600BF2E46002E18
:1037E00007D000BF64A2FF2153313046FCF78FFDA4
:1037F00000BF00BF02E0E169206A884770BDF8B5EC
:103800005B480068401C3BD0002666480078401C9E
:10381000C5B2022D00D1002563480078854225D02D
:1038200000F0DBFB044661480168204600F0D8FB4D
:1038300007464F480068009013E02821009848434D
:103840004A4909684418A068B84200D90CE0A06849
:103850003F1AA0688619606A00902046FFF7B1FF02
:1038600000BF0098401CE8D100BF00BF4D48007861
:1038700080004F490E504B480570FFF79DFF00BF79
:10388000F8BD014648480078464A127890421DD05B
:10389000454800788000464A105808604248007841
:1038A000401C414A107010460078022801D10020C7
:1038B00010703E4A0868126880183C4A1060104632
:1038C00000680002000A10600120704700200860B4
:1038D00000BFFAE7FEB52648006801903548007839
:1038E000009072E00098C0003349096844182578B8
:1038F00067E01820684361680F18681CC5B2A0789B
:10390000A84200D100253868022802D0032855D1EA
:103910000EE0282178684843144909684618307E2B
:10392000002804D07868FFF7F7FE0020307646E0E4
:103930000CE00F490968282251430C4A1268881884
:10394000002101760A4A416A116000BF08480068F8
:10395000401CEED133E000001CED00E000E100E08F
:103960000015014040130140001001407420002068
:1039700080200020942000202E2E5C2E2E5C2E2EE7
:103980005C2E2E5C536F757263655C6170705F6353
:103990006F6D6D6F6E5C6170705F74696D65722EB6
:1039A000630000009120002090200020842000204F
:1039B00088200020792000207C20002000BF00BF4C
:1039C00000BF6078A84294D100BF0098411EC9B2E0
:1039D0000091002886D1FA4801680198814201D0FF
:1039E0000120FEBD0020FCE7F0B50346002426E0E0
:1039F000F34E366828277E43F24F3F68F0198668F9
:103A00009E4203D98668F61A86601CE086689B1B76
:103A100086683419002686600676E94E3568E84FD8
:103A2000466A3E604669002E08D00E193602360AF4
:103A3000C6604669066116684662156000BFE048C8
:103A40000068401CD4D100BFF0BDFEB50746DC487D
:103A500000680290DC480078019069E00198C0009D
:103A6000DA49096845185CE0781C07D03E462820F2
:103A70007043D44909684418676A23E029781823F9
:103A800059436A6850182978491C29702978AA78FE
:103A9000914201D100212970466828217143C94A09
:103AA00012688C180168012902D1217E002900D0FA
:103AB00037E08168E160C168216101696161416944
:103AC000216200BFC249E0680968401A0002000A8A
:103AD000C049884208D2BE49E068096800F080FA0F
:103AE00021694018A06011E0B948E168006800F061
:103AF00077FA009021690098814204D921690098E1
:103B0000081AA06001E00020A06000BF0020E06073
:103B1000206101202076801E60623046FFF795FD0F
:103B200000BF781CA0D12878697888429CD100BF5A
:103B30000198411EC9B2019100288FD1A0480168A7
:103B40000298814201D00120FEBD0020FCE7FEB5B5
:103B500005469B480068401C33D0994800682821DE
:103B60004843984909684018866800F036FA029080
:103B7000974804682146029800F032FAC01C019070
:103B8000681C01D1FFF736FD0198B04201D23046E2
:103B900000E0019804192402240A20468E49086096
:103BA00000BF00F01AFA0090029900F019FA0746D7
:103BB0002046029900F014FA874201D9FFF7F7FD79
:103BC00001E0FFF72CFDFEBDFEB50020C0430190D3
:103BD0007F4804687A4807686846FFF752FE054642
:103BE000FFF778FE0646002D05D001AA2146009871
:103BF000FFF7FAFE01260198FFF727FF002800D003
:103C00000126002E02D03846FFF7A1FFFEBD30B5D9
:103C100001464878421C8878904200D100220878FA
:103C2000904201D1002030BD4878182568434C6887
:103C300023184A701846F6E7FFB581B005460E46D0
:103C40001746E900614A12688818FFF7E0FF04464A
:103C5000002C02D1042005B0F0BD01202060666078
:103C600000F0BBF9A060E760049820610A986061E9
:103C7000FFF7A2FD0020EEE770B505460E46E9000D
:103C8000524A12688818FFF7C2FF0446002C01D17F
:103C9000042070BD022020606660FFF78DFD0020CB
:103CA000F7E770B50546E900484A12688818FFF73B
:103CB000AEFF0446002C01D1042070BD032020601B
:103CC000001F6060FFF778FD0020F6E710B50020C8
:103CD000424908600021414841608160C160002084
:103CE0003E49403908604860FFF789FD10BD10B5B6
:103CF000FFF76AFF10BDFFB581B00E4617461C46A0
:103D000020468107890F01D1012100E0002100290F
:103D100002D1072005B0F0BD002C01D10720F9E742
:103D2000FFF77DFC2E490A9808602E48067025484A
:103D3000046000250CE0002128206843214A126815
:103D40001150282068431F4A1268801801766D1CA4
:103D5000B542F0DB28207043041903201A4908708B
:103D60001A480460183400250CE0E900174A12686C
:103D700088180021017041708770446018217943D0
:103D80000C196D1C032DF0DB0020C0430C490860AA
:103D900000201549087015490870142000F0EBF850
:103DA00003211420FFF7E6FB142000F0D6F8019859
:103DB000FFF717FC00F011F9054908600020A9E79A
:103DC0008020002074200020792000207C2000200A
:103DD00084200020FFFF7F0040150140401101407A
:103DE00094200020782000209020002091200020A6
:103DF00070B503460C467D480068002801D10820B4
:103E000070BD002A01D10720FAE7002B01D107205D
:103E1000F6E700211CE028204843744D2D682858FF
:103E2000002814D1012528204843704E36683550AB
:103E3000282048436D4D2D68401944602820484390
:103E40006A4D2D684019C26119600020D8E7491CED
:103E5000674800788142DEDB0420D1E710B500F02E
:103E600092F8012802D0032804D101E0002403E0E5
:103E7000012401E0022400BF00BF204610BDFEB5B2
:103E800004460D46164659480068002801D108200E
:103E9000FEBD57480078844201D2052D01D207208B
:103EA000F6E728206043514909680858012801D0E5
:103EB0000820EDE7282060434C4909684018406815
:103EC000012801D1284600E000200746FFF7C6FF81
:103ED0003B462A46214600960190FFF7ADFED7E704
:103EE00070B5044641480068002801D1082070BD23
:103EF0003F480078844201D30720F8E72820604338
:103F00003A4909680858012801D00820EFE7FFF76F
:103F1000A5FF05462146FFF7AFFEE8E710B5334899
:103F20000068002801D1082010BDFFF797FF044664
:103F3000FFF7B7FEF8E710B5044600F04EF8206032
:103F4000002010BD70B505460E4614463146284681
:103F500000F046F82060002070BDC206D20E01219C
:103F60009140244A11607047C206D20E012191404F
:103F7000214A11607047C206D20E012191401E4AAB
:103F800080321160704710B51C484068C105C90DEA
:103F9000002920D00A46103A104600280DDA174BA7
:103FA0001C330407240F083CA408A4001B598407F1
:103FB000E40EE3401B069B0F0BE00E4B0324240290
:103FC0001B198408A4001B598407E40EE3401B0658
:103FD0009B0FD8B210BD0420FCE709484068704729
:103FE0000246501A0002000A7047000074200020A8
:103FF0007820002000E100E000E200E000ED00E0B9
:104000000015014001464888924A1288904206DB1A
:104010004888904A5288904201DC01207047002075
:10402000FCE738B505468C4800888C4988423DD06D
:104030008B480078401C8A4908708A48007B0978C0
:10404000884214DB8848FFF7DDFF00282ED1814924
:104050008148008865DF0446002C07D081488069CC
:10406000002803D07F488169204688471EE07D48AC
:10407000007C00280FD03B217748008866DF04468B
:10408000002C07D077488069002803D075488169E3
:104090002046884700BF73484069002806D00020AA
:1040A0000090704841696846884700BF38BD70B5C8
:1040B00005461C2229466B48FCF77AF82868002838
:1040C0000BD008226348296800F0CEFF61486ADF00
:1040D0000446002C08D0204670BD5E486BDF0446C5
:1040E000002C01D02046F7E70020C0435A49088041
:1040F00000205B4908705D4A00215D48FFF778FEAB
:10410000EAE710B55A480068FFF7EAFE10BD70B53F
:104110005548FFF777FF00281AD15148007800284A
:1041200002D15048456801E04E4885680022294682
:104130004F480068FFF7A3FE0446002C07D049480B
:104140008069002803D0474881692046884700BF1E
:1041500070BD10B50446A0883F490880082221465A
:104160000E31414800F080FF00203D4908703D4875
:10417000C089002801D1FFF7CAFF10BD70B5054600
:104180000020C04334490880002035490870384871
:104190000068FFF7A5FE0446002C07D0314880696F
:1041A000002803D02F4881692046884770BD70B52C
:1041B0000546AC1D20882B49C989884220D1208B17
:1041C00002281DD100BF00BFA17EE27E1202114372
:1041D0000846C107C90F002902D0FFF798FF0FE07A
:1041E00023480068FFF77CFE0646002E07D01D48D6
:1041F0008069002803D01B4881693046884700BF8A
:1042000070BD10B504460822A11D174800F02CFF10
:10421000FFF77DFF10BD10B504462088102806D09A
:10422000112808D012280ED0502810D107E02046BF
:10423000FFF78FFF0CE02046FFF7A0FF08E02046C5
:10424000FFF7B5FF04E02046FFF7DBFF00E000BF0B
:1042500000BF10BD98200020A2200020FFFF00001A
:10426000A02000208C260020A42000202340020053
:10427000AC20002070B506460C461546294620465F
:10428000FCF773FA70BDFFB581B00C4616461F46A9
:1042900020468107890F01D1012100E0002100297A
:1042A00002D1072005B0F0BD002C01D10720F9E7AD
:1042B00025480460254806802548076025490A9856
:1042C00008602549019810DF0546002D01D02846D9
:1042D000E8E7162023DFE5E738B500BF1B48008874
:1042E000009069461848006850DF0446052C00D14C
:1042F0000EE0002C06D000BF18A25F212046FCF77C
:1043000006F800BF10480068114909688847E5E7CA
:1043100000BF38BD70B50F480068002810D00D48A8
:1043200000688047044600BF2546002D06D000BF28
:104330000AA271212846FBF7EAFF00BF00BF01E097
:10434000FFF7CAFF70BD0000B8200020BC2000208D
:10435000B0200020B4200020754202002E2E5C2EDA
:104360002E5C2E2E5C2E2E5C536F757263655C6224
:104370006C655C626C655F737461636B5F68616ED2
:10438000646C65722E63000000B501460846422940
:104390003ED00DDC3038030001F054FA12232425FE
:1043A000262728292A2B2C424242424242423942A5
:1043B000622824D00CDC45282DD004DC432828D0EA
:1043C00044282DD126E0462826D0612828D115E0A2
:1043D000632815D0642814D0652813D066281FD10F
:1043E00011E000BF00BF00BF00BF00BF00BF00BFA3
:1043F00000BF00BF08463038C0B200BD00BF00BFDC
:1044000000BF00BF00BF08465738C0B2F5E700BF85
:1044100000BF00BF00BF00BF08463738C0B2ECE79E
:104420000020EAE710B502461078FFF7ADFF04015F
:104430005078FFF7A9FF0443E0B210BD10B5024663
:104440001078FFF7A1FF04035078FFF79DFF0002EB
:1044500004439078FFF798FF00010443D078FFF7FA
:1044600093FF0443A0B210BD0146087800024A78C9
:104470001043704710B50246D079FFF785FF040658
:104480009079FFF781FF000704435079FFF77CFF25
:10449000000404431079FFF777FF00050443D07848
:1044A000FFF772FF000204439078FFF76DFF0003EF
:1044B00004435078FFF768FF04431078FFF764FF68
:1044C0000001204310BD0146C87800068A78120416
:1044D00010434A78120210430A7810437047F8B527
:1044E00005460F461446E81DFFF79CFF6060E81C78
:1044F000FFF7A4FF6080681CFFF794FF207021780D
:10450000490009314819FFF78DFF207660680028BF
:1045100006D002281AD003281ED0042831D114E076
:1045200000260AE0F10009314819FFF7A3FFB200A5
:10453000214608318850701CC6B22078C117890FF7
:1045400009188910B142EDDC1CE000BF2846093093
:10455000FFF774FFA06015E000260AE0F1000931C2
:104560004819FFF787FFB200214608318850701CB8
:10457000C6B22078C117890F09188910B142EDDC45
:1045800000E000BF00BF0020F8BDF8B505460F46AB
:104590001446E8786060681CFFF766FF6080287842
:1045A0002070002020766068002806D002281AD0EB
:1045B00003281DD0042830D114E000260AE0B10001
:1045C000091D4819FFF77FFFB200214608318850C6
:1045D000701CC6B22078C117890F09188910B14222
:1045E000EDDC1BE000BF281DFFF73EFFA06015E0DB
:1045F00000260AE0B100091D4819FFF764FFB20068
:10460000214608318850701CC6B22078C117890F26
:1046100009188910B142EDDC00E000BF00BF0020A6
:10462000F8BD0146002208788018C2B28878801848
:10463000C2B24888FF231B02184000128018C2B281
:1046400008798018C2B2002006E00B4608331B5CD4
:104650009B18DAB2431CD8B20B788342F5DC0120F8
:1046600070470000F7B506460F46002E01D1694895
:1046700000E069480446002E1ED1062000F0B1F883
:10468000052000F0AEF80021042000F0B3F803206C
:1046900000F0A7F8062005210902611888600520AE
:1046A00001026118C860042005210902611808612F
:1046B000032000F0A9F81EE01D2000F092F815205C
:1046C00000F08FF80021172000F094F81C2000F073
:1046D00088F81D2005210902611888601520052130
:1046E00009026118C86017200521090261180861D4
:1046F0001C2000F089F801208007052109026118BB
:104700004862002F06D0012F06D0022F06D0032FBB
:1047100008D105E0002507E0022505E0042503E0B7
:10472000062501E0002500BF00BF0298002806D042
:1047300001202843152189016118486103E01520F3
:104740008001201845610021FF200930015101201E
:1047500005210902611808602046FEBDFFB581B041
:1047600000270026019D2B48019D854201D103248D
:1047700000E01C2400BF0120A0402849C86000BF01
:1047800027E00398805D052109026918C86100E0EF
:104790007F1CFF2009304059002803D1032000036B
:1047A0008742F5D303200003874205D1204600F05D
:1047B0002BF8002005B0F0BD0021FF200930415149
:1047C0000520000228188069C1B204988155701C28
:1047D00086B202988642D4DB204600F015F801200C
:1047E000E8E701210522120707231B02D2188300E4
:1047F000D150704710B58A0005231B0707242402F7
:104800001B1984001A5110BD01218140034A916097
:10481000704700000030004000400040000500509C
:10482000F0B502460C46002035E0012383401946CE
:1048300023460B422ED0D5680D4205D101235B04DF
:10484000D5680D43D56004E003231B04D5688D4370
:10485000D56005252D0707263602AD198600AD590E
:1048600003263604B5430526360707273F02F61907
:104870008700F55105252D0707263602AD1986005C
:10488000AD591D430526360707273F02F619870055
:10489000F55100BF401C2028C7D3F0BDFEB5E1484C
:1048A00006690020E049C863002527E0142068431A
:1048B000DE49096844180120A840DD49096808421A
:1048C0001AD0E068C0437040216808400746394666
:1048D0002046FFF7A5FFA068B0433840009060680D
:1048E00030403840019000990198084303D0226974
:1048F00000990198904700BF681CC5B2CD48007868
:104900008542D3DBFEBD10B50146002028E014220D
:104910004A43C64B1B689A58012383401A421ED053
:104920000522120707231B02D2188300D258032343
:104930001B049A4305231B07072424021B19840028
:104940001A510522120707231B02D2188300D258DE
:1049500005231B07072424021B1984001A51401C3D
:104960002028D4D310BD70B505460C46002C01D1CB
:10497000072070BD20468107890F01D1012100E089
:104980000021002901D10720F3E7A8480460AA48C4
:1049900005700020A7490870A5490860A64800785E
:1049A000142250430146A148006800F0BCFB0020DF
:1049B000C043A2498860062001218140A04A1160BD
:1049C00000BF012100F0F7F80620012181409D4A37
:1049D000116000BF0020CCE7F8B504460D4616462E
:1049E0001F4692480068002801D10820F8BD002F1A
:1049F00001D10720FAE78F4800788F49097888426B
:104A000001DB0420F2E7284630438A490978142262
:104A10005143864A12685050864800781421484312
:104A2000824909684018456082480078142148434B
:104A30007E490968401886607E4800781421484302
:104A40007A490968401807617A48007820707948E7
:104A50000078401C774908702078FFF754FF002049
:104A6000C4E7F0B5024671480068002801D108206B
:104A7000F0BD70480078824201DB0720F8E7002093
:104A8000694BD8636748046969480068002802D107
:104A900058066A4B586001209040654B1B681843CC
:104AA000634B1860002314205043604D2D6840195B
:104AB000C360002140E001238B4018461423534378
:104AC0005A4D2D68EB58034235D02546054202D099
:104AD00003231B040EE001235B0414255543534EAE
:104AE0003668AD19ED680543142656434F4F3F68AD
:104AF000F619F56005252D0707263602AD198E003B
:104B0000AD5903263604B5430526360707273F026D
:104B1000F6198F00F55105252D0707263602AD1928
:104B20008E00AD591D430526360707273F02F619AB
:104B30008F00F55100BF491C2029BCD3002097E706
:104B400010B5044639480068002801D1082010BD7E
:104B500038480078844201DB0720F8E72046FFF759
:104B6000D2FE0120A04032490968814330480160EB
:104B70000068002803D10120C00730498860002068
:104B8000E5E710B5024629480068002801D1082051
:104B900010BD28480078824201DB0720F8E7142086
:104BA0005043224C246803191E4800691C682040A9
:104BB00008600020ECE710B5002819DA224A030744
:104BC0001B0F083B9B089B00D2588307DC0EFF237A
:104BD000A3409A438B071B0E8407E40EA3401A439D
:104BE000194B0407240F083CA408A4001A5118E02C
:104BF000144A03231B02D21883089B00D258830750
:104C0000DC0EFF23A3409A438B071B0E8407E40EA0
:104C1000A3401A430B4B032424021B198408A4004D
:104C20001A5110BD0005005040610040C020002016
:104C3000C4200020C9200020C820002000630040BC
:104C400080E200E000E100E01CED00E001B505E0DD
:104C50000098401E00900348FBF79AFA009800283D
:104C6000F6D108BDE70300000020594908705949F2
:104C700008707047002057490870042156482FDFFC
:104C80007047534908707047514800787047514940
:104C9000087070474F4800787047F7B58CB00746EA
:104CA0001446002002970390012500262EE00D985F
:104CB000C007C00F13D00399029806960795049178
:104CC000059028463146049B059A00F0E4F82246F8
:104CD00000230191009000F0F6F815461E46029957
:104CE00003980B910A90099108900846089B099A2D
:104CF0000A9900F0D0F8224600230191009000F0BC
:104D0000E2F8039302920D9840080D900D98002848
:104D1000CDD128460FB0F0BD38B504460421684611
:104D20002FDF2E4802682E4800990068FFF7B5FF74
:104D300005462A48026820460099FFF7AEFF26493B
:104D40000860284638BD0146002004E00A5C254B77
:104D50001A54421CD0B21028F8DB7047F1B58CB061
:104D60001D48047800880004050E1B4800680002F6
:104D7000060E19480068070E684604704570867074
:104D8000C770077146718571C4710472477285726C
:104D9000C672077344738673C573102204A80C99F6
:104DA00000F062F968464ADF10220E4908A800F0B8
:104DB0000BF9002803D101200649087002E0002009
:104DC00004490870034800780DB0F0BD05487047ED
:104DD000CC200020CD200020D8200020D020002092
:104DE000D4200020A826002070B5064600F03AFC2A
:104DF000056830460B30C408E400B44201D80020F6
:104E000070BD68682A46002818D00168A14211D3F5
:104E10000B46214608318B4208D3436801194B6089
:104E200003681B1B0B605160046001E04168516026
:104E3000001D70BD024640680028E6D12146284684
:104E400000F018FC0028DCD170BD70B50446051FC9
:104E500000F008FC0068002C1AD0446801E02046ED
:104E60006468002C01D0AC42F9D301680A18AA4248
:104E700004D12A6805468918016000E04560286869
:104E80004119A14205D16168696021684018286014
:104E900070BD6C6070BD4343514330B55C18010C6C
:104EA000130C0D4692B25D4380B251432C19054656
:104EB00055430A0C09044D1962415843010C000482
:104EC0004019514130BDFEB5054610460C46184309
:104ED00073D0AE468C460020AD1A01469C4167D384
:104EE0006646002701243D46B61A9D4102D313466B
:104EF0003A462124654676462F04360C3E432D0C57
:104F0000B61A9D4104D3150C1B042B431204103414
:104F1000654676462F06360A3E432D0AB61A9D414F
:104F200004D3150E1B022B43120208346546764645
:104F30002F0736093E432D09B61A9D4104D3150F9C
:104F40001B012B431201241D65467646AF07B608A8
:104F50003E43AD08B61A9D4104D3950F9B002B43E9
:104F60009200A41C65467646EF0776083E436D081E
:104F7000B61A9D411AD392185B41641C16E00018C2
:104F8000764665464941B71A9D410191009009D383
:104F90006046B11A98418E468446009801990025D2
:104FA000401C6941DD0752082A435B08641EE6D5B0
:104FB0007246634603B0F0BDFFE700200146C046DD
:104FC000C0462A462346F5E7034610B50B439B0728
:104FD0000FD1042A0DD308C810C9121FA342F8D05C
:104FE00018BA21BA884201D9012010BD0020C0435F
:104FF00010BD002A03D0D30703D0521C07E00020C5
:1050000010BD03780C78401C491C1B1B07D103788A
:105010000C78401C491C1B1B01D1921EF1D1184673
:1050200010BD000030B5441C03E00178401C00298D
:105030000DD08107F9D10B4BDD0104C8D11A914382
:105040002940FAD0001B0A0603D0C01E30BD001B49
:1050500030BD0A0401D0801E30BD0902FCD0401EC4
:1050600030BD000001010101F8B5042A2CD38307EB
:1050700012D00B78491C0370401C521E83070BD0C2
:105080000B78491C0370401C521E830704D00B7818
:10509000491C0370401C521E8B079B0F05D0C91A78
:1050A000DF002023DE1B08C90AE0FBF781F8F8BD0A
:1050B0001D4608C9FD401C46B4402C4310C0121FB9
:1050C000042AF5D2F308C91A521EF0D40B78491CF1
:1050D0000370401C521EEAD40B78491C0370401C1C
:1050E000521EE4D409780170F8BD01E004C0091F24
:1050F0000429FBD28B0701D50280801CC90700D090
:105100000270704700290BD0C30702D00270401C08
:10511000491E022904D3830702D50280801C891E00
:10512000E3E70022EEE70022DFE7002203098B42DB
:105130002CD3030A8B4211D300239C464EE0034636
:105140000B433CD4002243088B4231D303098B42EA
:105150001CD3030A8B4201D394463FE0C3098B4220
:1051600001D3CB01C01A524183098B4201D38B0179
:10517000C01A524143098B4201D34B01C01A52411C
:1051800003098B4201D30B01C01A5241C3088B4261
:1051900001D3CB00C01A524183088B4201D38B004C
:1051A000C01A524143088B4201D34B00C01A5241EE
:1051B000411A00D201465241104670475DE0CA0FC5
:1051C00000D04942031000D34042534000229C4685
:1051D00003098B422DD3030A8B4212D3FC2289018F
:1051E00012BA030A8B420CD3890192118B4208D365
:1051F000890192118B4204D389013AD0921100E0C7
:105200008909C3098B4201D3CB01C01A52418309DA
:105210008B4201D38B01C01A524143098B4201D307
:105220004B01C01A524103098B4201D30B01C01A32
:105230005241C3088B4201D3CB00C01A52418308AC
:105240008B4201D38B00C01A5241D9D243088B4202
:1052500001D34B00C01A5241411A00D201466346A5
:1052600052415B10104601D34042002B00D5494209
:10527000704763465B1000D3404201B50020C04632
:10528000C04602BD70477047704700000246C80F15
:10529000C00781434B0030B54B405B009B0D20D0D5
:1052A0001923DB06C91801231B05994220DB0324BF
:1052B000A40704251346AB400BD3002B04D1EB0607
:1052C00013409B001B1904D4012464070023121906
:1052D0005941FF231B0599420BD2C9000143500FCE
:1052E00009E0CB0204D501430803024305D0054879
:1052F00030BDFF21C905084330BD08460721090517
:10530000884330BD0000C07FF0B5904C0D092646A3
:10531000AC46AE430D465D4087B0002E7ED01E09E0
:105320002746B743FAD067462740ED0F3D43264056
:1053300075D024012142FBD07419FF25AD04641BF4
:105340000494CC02D90201231B05C90A1943E40ABB
:105350001C430F012401030F110F1C430F430501D0
:10536000A10B88032D0916018443A80B82039543E2
:10537000BB0B9A0397433609BC46B20B9703BE4357
:105380000746574303972F4677430296BE46029F30
:105390004619D71906967E430597039FF71B764655
:1053A000BE1B77463F0100970196039FB60BF61987
:1053B000B646019E009FB604BF1902D37646761CFE
:1053C000B64676467600002F01D001273E43674659
:1053D0007D43AE46029F25467D4300956D00AE1984
:1053E00075466D00AF1965465D19069E03956E43BF
:1053F0007546751BAE460D19059E02956E43009DC0
:105400005843761B75462D1A4A439646B21A0092A7
:105410000195FA0606D07D09012201E076E072E0EE
:10542000154300E07D09020A0006002745197A416C
:105430007646300A360676195041019A950D920249
:10544000961945410098820D800280196A4159439E
:1054500063465C43039D029B6B435B1A1E1BB30EAA
:10546000B601B6187B410A0B090589195A41230A6E
:10547000240624184B418B4200D2521C01204002CA
:10548000824203D315210226F64302E014210326AB
:10549000F6432020451AAA401F46AF40CB40204685
:1054A000C840049913430914711809055A1804993E
:1054B0003843C9075140AC4009D001239C4006D372
:1054C0000023401C5941002C01D140084000204BD2
:1054D000002A03DB1A4201D08B4312D10122049827
:1054E0009206904207DB052040070918194801433E
:1054F000C012414004E0032040070818C10FC9074B
:10550000002007B0F0BD0020E907FAE706180C46B6
:105510004C4111487642A04114D394181A465A417E
:105520000D48644290410DD301204900400581425D
:1055300008D35900814205D3E90F054AC907002065
:105540001143DEE700200549DBE700000000FF070C
:105550000000F07FFFFFFF7F0000E0FF0000F87F0A
:105560000121C9050123411842001B06D3185B0E17
:105570000BD0C1100722D2068918400752428A1860
:1055800002D50922120789187047090208D5014679
:10559000002A03D0C10FC90700207047104670478A
:1055A000420202D000200349704707210905014348
:1055B000F4E700000000F87F10B502469E240002C8
:1055C000D115A307002902D01843002904DB611A72
:1055D00000290CDDC84010BD0906090E01D14000AC
:1055E0004008611A03D4C84040420028F3DDFF217F
:1055F00050000906884201D9002010BDD017C043D1
:10560000584010BD1F22030C02D10F2200041CD0F1
:10561000030E01D1083A0002030F01D1121F00014D
:10562000830F01D1921E8000002801DB521E400032
:10563000D2055118021251181922904004D3491C66
:10564000002801D14908490008467047C10FC90721
:1056500000D04042012292071143D3E7012189077C
:10566000D0E7000000487047D02600207047704700
:105670007047704738B504460A4600206946C04660
:10568000C046002805D002462046009900F040F8A8
:10569000012038BD10B5012000F054F810BDF8B558
:1056A000C046C046054600200C461020C0460646AF
:1056B000A819A0420DD9324669460020C046C0460E
:1056C000070001D100F03EF80098A04200D0054646
:1056D000C419FFF7C7FFF61D07460560F008C000B4
:1056E0004619284600F008F8B44204D0314638681C
:1056F000A21B00F00DF8F8BD002101604160806040
:10570000704710207047000000487047C8260020EE
:1057100010B50346406801E003464068002801D008
:105720008842F9D31868C3188B4206D0CB1CD8081E
:10573000C000001D411A521A0146081D0A60FFF7F9
:1057400084FB10BD10B500F02FF800F027F810BD55
:1057500070477546FFF7D8FFAE46050069465346C9
:10576000C008C000854618B020B5FAF74DFD60BCF2
:1057700000274908B6460026C0C5C0C5C0C5C0C57B
:10578000C0C5C0C5C0C5C0C5403D49008D467047B5
:105790000446C046C0462046FAF7E3FC10B5002890
:1057A00001D000F029F810BD10B5012805D0002166
:1057B00003A000F027F8012010BD09A1F8E70000C0
:1057C00053494752544D454D3A204F7574206F66EA
:1057D0002068656170206D656D6F72790000000052
:1057E0003A2048656170206D656D6F727920636F36
:1057F000727275707465640001491820ABBEFEE7D3
:105800002600020070B505460C460A2000E06D1C1B
:1058100000F012F8002D06D028780028F7D102E019
:10582000641C00F009F8002C02D020780028F7D181
:105830000A2000F001F870BD08B569460870032021
:10584000ABBE08BD30B47446641E2578641CAB4200
:1058500004D3635D5B00E31830BC18471D46F8E7CE
:1058600070B501250400ED074C4020D4441A01D244
:10587000001B0919C60D4B00F2B2FF2A29D01B0EDE
:105880002CD000020C02D31A2C43DC40284305190B
:1058900010D2280A02D3401C6D0611D0761EF605E0
:1058A0008019FF2A00DA70BDC00DC00570BD6940C7
:1058B00000F086F801200543C541521C761CE8E73C
:1058C00064089C40C90161408900E7D10124A043DC
:1058D000E4E71B0E440200D0034870BD002AFCD14F
:1058E000C00FC00770BD00BF0000C07F70B5420090
:1058F00064414B005C41120E39D01B0E38D0FF2A98
:105900003CD0FF2B3AD040024902400A490A060027
:1059100045184E43000A090AD2184843ED017F3A60
:105920000104731A4019190C4318990F04D001216E
:105930005B0849075B1A521CD80904D3401CF503C5
:1059400001D19D0607D0FF2A08D2D50506D0E4076D
:105950002043401970BD0125A843F4E7002A01DC6B
:10596000E00770BD2402FF202043C00570BD1B0E60
:10597000FF2A03D0FF2B01D0E00770BDFF264500B2
:105980003606B54206D84D00B54203D8D218FF2AD4
:1059900000D0E7E7004870BD0000C07F70B501256A
:1059A000ED07684004004C4002D5694000F008F85B
:1059B000FFF75CFF70B501250400ED074C4022D4D1
:1059C000441A02D26C40001B0919C60D4B00F2B2FA
:1059D000FF2A4BD01B0E50D000020C02D31A2C43CE
:1059E000DC40A843051B05D5AD0019D36D08761E14
:1059F000521E37D0F605280A01D2801970BD7041B9
:105A00006D0603D070BD6940FFF730FF9C4009026E
:105A10006140490001D0401E70BD0124A04370BD0B
:105A20006D081DD001202B0C01D12D0410302B0E40
:105A300001D12D0208302B0F01D12D01001DAB0F1C
:105A400001D1AD00801CEB0F01D16D00401C6D0039
:105A5000361A121A680AF5054019012A02DB70BDD0
:105A6000002070BDC036300AC00770BD1B0E440256
:105A700001D1FF2B00D1024870BD002AF0D070BDCB
:105A80000000C07F001000006DFE576B5525F9AF78
:105A90006E46F8F5307F40B9B85A02000020002069
:105AA000DC00000004010200945B0200DC20002006
:105AB0004C160000200102000024F400FFFF00004B
:105AC00000000000010000000000000019000000BC
:105AD00000000000000000000000000000000000C6
